:100000000C9492000C94BA000C94BA000C94BA00B0
:100010000C94BA000C94BA000C94BA000C94BA0078
:100020000C94BA000C94BA000C94A6030C9415041A
:100030000C94BA000C94BA000C94BA000C94BA0058
:100040000C94BA000C94BA000C94BA000C94BA0048
:100050000C94BA000C94BA000C94BA000C944706A5
:100060000C94BA000C94BA000C94BA000C94BA0028
:100070000C94BA000C94BA000C94BA000C94BA0018
:100080000C94BA000C94BA000C94BA000C94BA0008
:100090000C94BA000C94BA000C94BA000C94BA00F8
:1000A0000C94BA000C94BA000C94BA00080B00022D
:1000B0000202000009040000010202000005240001
:1000C0001001052401010104240206052406000193
:1000D0000705810310004009040100020A00000026
:1000E00007050202400000070583024000000403E8
:1000F000090412010002EF02014041233680000191
:100100000102030141726475696E6F204C4C43001B
:1001100041726475696E6F204C656F6E6172646FB9
:100120000000910611241FBECFEFDAE0DEBFCDBF85
:1001300011E0A0E0B1E0ECE5F0E102C005900D9225
:10014000A633B107D9F721E0A6E3B1E001C01D92C3
:10015000A33BB207E1F710E0C2E9D0E004C0219769
:10016000FE010E942608C139D107C9F70E94A606E0
:100170000C942C080C940000FC018091B20188239F
:1001800011F13FB7F89482E08093E9002091F200EA
:10019000822F90E01816190614F481E090E088236D
:1001A00039F0289844E64093B1014091F100408332
:1001B000222339F02091F200211103C02BE6209375
:1001C000E8003FBF08958FEF9FEF08952FB7F89491
:1001D00083E08093E9009091E800892F807295FF79
:1001E00004C09091F20080E4891B2FBF0895809194
:1001F000A90181110DC082E08093A50184E0809364
:10020000A6011092A8011092A70181E08093A90194
:1002100085EA91E00895CF93DF931F92CDB7DEB7C3
:100220006983DC01ED91FC910280F381E02D41E0D6
:1002300050E0BE016F5F7F4F09950F90DF91CF9126
:10024000089583E08093E9008091F200882319F0FB
:100250008AE38093E80008950E94E60090E0089504
:10026000CF93DF931F92CDB7DEB7FC0184859585D0
:1002700097FD08C02FEF3FEF358724870F90DF9160
:10028000CF910895CE0101960E94BC00019719F408
:10029000898190E0F3CF8FEF9FEFF0CF0F931F9303
:1002A000CF93DF931F92CDB7DEB78C01FC0184851D
:1002B000958597FF0BC0CE0101960E94BC00019767
:1002C00071F4898190E0F80195878487F80184852D
:1002D00095850F90DF91CF911F910F9108958FEF2A
:1002E0009FEFF1CFFC018485958597FD0BC09FB7EB
:1002F000F89482E08093E9008091F2009FBF90E043
:10030000019608959FB7F89482E08093E900809168
:10031000F2009FBF90E0089540914F01509150012D
:1003200020914D0130914E0142175307B4F4909142
:10033000E8009570E1F39091E80092FD19C0809378
:10034000F10080914F019091500101968F73992790
:10035000892B19F48EEF8093E80080914F019091E2
:10036000500101969093500180934F0181E00895D0
:1003700080E00895EF92FF920F931F93CF93DF9346
:10038000F82E192FE62E042F81E0860F880F0E9489
:100390008C0183E00E948C01CF2DD12FEC0EFD2E1D
:1003A000F11CCE15DF05B9F007FF13C0FE018491E3
:1003B0000E948C01182F80E00E948C0181232196DD
:1003C0008111EFCFDF91CF911F910F91FF90EF90AF
:1003D00008958881EDCF81E0F5CFDF92EF92FF9213
:1003E0000F931F93CF93DF93D82E8A01EB017B01EC
:1003F000E40EF51ECE15DF0559F0D7FE12C0FE0142
:1004000084910E948C0121968111F4CF0FEF1FEF90
:10041000C801DF91CF911F910F91FF90EF90DF9076
:1004200008958881EECF0F931F93CF93DF931F9290
:10043000CDB7DEB782E0898342E450E06CEA70E039
:1004400080E80E94ED010E94F700DC0112960D91F8
:100450001C910115110589F0D801ED91FC910280E4
:10046000F381E02DBE016F5F7F4FC801099597FDB5
:1004700004C0F80100851185ECCF89810F90DF91D0
:10048000CF911F910F910895615030F02091F100AC
:10049000FC0120830196F8CF289884E68093B1016F
:1004A00008953FB7F8948091490190914A01A09135
:1004B0004B01B0914C0126B5A89B05C02F3F19F008
:1004C0000196A11DB11D3FBFBA2FA92F982F8827D4
:1004D000BC01CD01620F711D811D911D42E0660FAF
:1004E000771F881F991F4A95D1F708958F929F9281
:1004F000AF92BF92CF92DF92EF92FF926B017C019D
:100500000E9451024B015C01C114D104E104F104C9
:10051000B9F00E945102681979098A099B09683E5D
:1005200073408105910580F321E0C21AD108E108EA
:10053000F10888EE880E83E0981EA11CB11CE4CF60
:10054000FF90EF90DF90CF90BF90AF909F908F90F3
:1005500008958F929F92AF92BF92CF92DF92EF92C7
:10056000FF920F931F93CF93DF936C017B018A015E
:1005700080911001882309F45CC08091B201882326
:1005800009F457C08091540180FF05C08091E000BC
:1005900082608093E000E801B12C8AEFA82E93E0FE
:1005A000892E2AE3922E209711F4BB20D9F10E94C4
:1005B000E60081110AC0AA94AA20D9F161E070E096
:1005C00080E090E00E947602EECF8C171D0611F0BD
:1005D0000CF08C2F9FB7F8948092E9002091E800EE
:1005E00025FD02C09FBFDFCF282F30E0C21BD30BF9
:1005F000F701815020F041914093F100FACFE20ED3
:10060000F31EBB2021F09092E800B12CEBCF80913B
:10061000E80085FDE7CF9092E800BB24B3942097D3
:1006200009F3F3CF5D9884E6809353011016110609
:100630003CF081E090E0F6019383828310E000E0DB
:10064000C801DF91CF911F910F91FF90EF90DF9044
:10065000CF90BF90AF909F908F900895E0913C0114
:10066000F0913D01EB5EFE4F208128B920913C01C5
:1006700030913D012150310937FD06C030933D01D5
:1006800020933C010C94760227E030E0F7CFE09114
:100690003A01F0913B01EF5EFE4F208128B9209195
:1006A0003A0130913B012150310937FD06C03093AA
:1006B0003B0120933A010C94760223E030E0F7CF1F
:1006C000E0913801F0913901EB5EFE4F2091040179
:1006D00040E1249F900111243081232B28B92091DF
:1006E0003801309139012F5F3F4F2830310534F404
:1006F00030933901209338010C947602109239011D
:1007000010923801F9CFE0913601F0913701EF5E98
:10071000FE4F2091040140E1249F9001112430817B
:10072000232B28B920913601309137012F5F3F4F9D
:100730002430310534F430933701209336010C9482
:1007400076021092370110923601F9CF1F920F9264
:100750000FB60F9211248F939F938091E100909197
:10076000E100937F9093E10083FF0FC01092E900B6
:1007700091E09093EB001092EC0092E39093ED00E7
:100780001092B20198E09093F00082FF22C093E0B3
:100790009093E9009091F200992319F09AE39093D5
:1007A000E80090915301992341F0909153019150A9
:1007B00090935301911101C05D9A9091B1019923D9
:1007C00041F09091B10191509093B101911101C00C
:1007D000289A84FF18C08091E2008E7E8160809309
:1007E000E2008091E1008F7E8093E10080915401CE
:1007F0008E7E8061809354019F918F910F900FBEE8
:100800000F901F90189580FFF7CF8091E2008E7EA9
:1008100080618093E2008091E1008E7E8093E10010
:10082000809154018E7E8160E5CF1F920F920FB6AA
:100830000F921124CF92DF92EF92FF920F931F93AA
:100840002F933F934F935F936F937F938F939F93D8
:10085000AF93BF93EF93FF93CF93DF93CDB7DEB703
:100860006C97DEBFCDBF1092E9008091E80083FF56
:1008700025C068E0CE0145960E94440282EF809335
:10088000E8008D8987FF39C09091E80090FFFCCF88
:10089000982F907609F034C19E894F89588D2F8901
:1008A000F88C911131C0803861F5809152018093AC
:1008B000F1001092F1008EEF8093E8006C960FB675
:1008C000F894DEBF0FBECDBFDF91CF91FF91EF91C6
:1008D000BF91AF919F918F917F916F915F914F9158
:1008E0003F912F911F910F91FF90EF90DF90CF904C
:1008F0000F900FBE0F901F9018959EEF9093E800F9
:10090000C7CF1092F100D5CF913059F48111D3CFD8
:100910004130510581F6809152018D7F80935201C3
:10092000CACF933049F48111C6CF4130510519F631
:10093000809152018260F2CF953041F48091E800BD
:1009400080FFFCCF20682093E300B5CF963009F0FC
:10095000A9C00B8D1C8D22E01092E900109250016D
:1009600010924F01F2122EC010924E0110924D01C2
:100970000E9413021F8299E09983FA8291E09E837C
:1009800090EA98879AEF998720914F013091500112
:10099000275F3F4F3C832B838D831092E900109299
:1009A000500110924F0110934E0100934D0149E008
:1009B00050E0BE016F5F7F4F80E00E94ED010E941A
:1009C000130279CF10934E0100934D010E94F7005E
:1009D000DC0112960D911C910115110509F451C10C
:1009E000D801ED91FC910480F581E02DBE016B5E94
:1009F0007F4FC8010995009709F03EC1F8010085B5
:100A00001185EACFF3E0FF120EC08F89882309F425
:100A100040C0823061F440E860E180E191E00E94F2
:100A2000BA01811148CF81E28093EB0047CF81303A
:100A300029F440E86BE084E091E0F1CF833099F74E
:100A40000E94F700DC011296ED90FC908E010F5F82
:100A50001F4F6801E114F10479F0D701ED91FC9189
:100A60000680F781E02DB801C7010995080F111D17
:100A7000F701E084F184EECFD8011C92F6010190D9
:100A80000020E9F73197BF016C197D0940E0C601EC
:100A9000C6CF6EEE70E0FB01449150E080E80E940A
:100AA000ED0109CF973009F4BECF983021F481E0F1
:100AB0008093F10000CF993009F0FDCE837009F0EA
:100AC000B2CFEEE1F1E081E031E096E32191222323
:100AD00071F08093E9003093EB00DF0111972C91C6
:100AE0002093EC009093ED008F5F873079F78EE7CD
:100AF0008093EA001092EA008F898093B201DBCEE6
:100B00008B8D9C8D1092E9001092500110924F0134
:100B100090934E0180934D01898D811192C08E89F1
:100B20009D89913A49F4813209F07DCF47E050E048
:100B300069E071E080E0B3CF913209F074CF833285
:100B400069F48F89988DB0E0A0E0809305019093BF
:100B50000601A0930701B0930801ADCE803269F47D
:100B60008091E80082FFFCCF67E089E091E00E947D
:100B700044028BEF8093E8009ECE823209F09BCE38
:100B80008F8980931001EEEFFFE7859194918B3F61
:100B90009C4D51F1E0E0F8E08091090190910A014B
:100BA000A0910B01B0910C01803B9440A105B105CF
:100BB000F1F48091100180FD1AC0EE3F8AE0F80741
:100BC00089F587E797E79183808380916000809320
:100BD000510188E19BE00FB6F894A89580936000DE
:100BE0000FBE9093600067CEEEEFFAE0D5CF808124
:100BF00091818737974709F05ECEA8958091600074
:100C00008861809360008091510180936000EE3F85
:100C10002AE0F20789F08091FE0A9091FF0A918301
:100C2000808349CE808191818737980751F29093D4
:100C3000FF0A8093FE0AC5CF1092FF0A1092FE0AA7
:100C40003ACE0E94F700DC0112960D911C9101151D
:100C5000110509F4E8CED801ED91FC910190F081E5
:100C6000E02DBE016B5E7F4FC8010995811123CE37
:100C7000F80100851185EBCF181619060CF41BCE70
:100C8000D2CEF1E0FF12BECE62EF70E004CF1F9231
:100C90000F920FB60F9211242F933F938F939F9330
:100CA000AF93BF938091450190914601A091470178
:100CB000B09148013091440123E0230F2D3758F5BE
:100CC0000196A11DB11D209344018093450190938D
:100CD0004601A0934701B09348018091490190914A
:100CE0004A01A0914B01B0914C010196A11DB11D8B
:100CF0008093490190934A01A0934B01B0934C011A
:100D0000BF91AF919F918F913F912F910F900FBE07
:100D10000F901F90189526E8230F0296A11DB11D74
:100D2000D2CFE5E5F1E01382128288EE93E0A0E0F5
:100D3000B0E084839583A683B78388E291E09183B2
:100D400080838FEF9FEF958784870895789484B58B
:100D5000826084BD84B5816084BD85B5826085BDB7
:100D600085B5816085BD80916E00816080936E0045
:100D70001092810080918100826080938100809137
:100D800081008160809381008091800081608093E8
:100D90008000809191008260809391008091910009
:100DA0008160809391008091900081608093900099
:100DB0008091C10084608093C1008091C1008260F5
:100DC0008093C1008091C10081608093C1008091B7
:100DD000C30081608093C3008091C00082608093D3
:100DE000C0008091C20081608093C20080917A002F
:100DF000846080937A0080917A00826080937A0088
:100E000080917A00816080937A0080917A00806876
:100E100080937A001092B201109252011092540104
:100E20008091D70081608093D70080EA8093D800BA
:100E300089B5806189BD89B5826089BD09B400FE2C
:100E4000FDCF61E070E080E090E00E94760280914A
:100E5000D8008F7C80618093D8008091E000807FF3
:100E60008093E0008091E1008E7E8093E1008DE030
:100E70008093E200559A209A9FE79AB984B1807EC8
:100E800084B985B18F6185B98FE387B988B118B806
:100E90009BB916E001E08EE9F82E9AEDE92EC0E04C
:100EA000D0E0DD24D394189909C0809143018111C9
:100EB00054C0D0924301FBB8189BFECF19996CC067
:100EC00080914301811152C01BB9209104016091AE
:100ED0000001709101018091020190910301222390
:100EE00009F441C00E946003199952C065E070E0A6
:100EF00080E090E00E947602809140019091410153
:100F0000059690934101809340018039914064F3AC
:100F100088B118B8EBB86CE271E080E090E00E9414
:100F200076021BB86CE271E080E090E00E947602ED
:100F3000199929C065E070E080E090E00E94760297
:100F400080913E0190913F01059690933F018093DF
:100F50003E018039914064F3C7CF109243011BB921
:100F600088B118B8A9CF0E942E03BECFFBB88091DC
:100F70004201982F902790934201813009F0B4CF1D
:100F800088B118B8B1CF10923F0110923E01C2CF84
:100F900010924101109240011A9907C080910401FA
:100FA0008027809304011A9BFECF1B9918C0809163
:100FB000000190910101A0910201B09103018932D9
:100FC0009105A105B10558F04497A109B109809395
:100FD000000190930101A0930201B093030180915D
:100FE00043011C9928C0813041F580910001909106
:100FF0000101A0910201B09103014496A11DB11D10
:101000008093000190930101A0930201B09303012A
:1010100080914201882389F0609100017091010163
:10102000809102019091030120910401222359F043
:101030000E94600302C0813059F3209709F433CF36
:101040000E94000030CF0E942E03F7CFEE0FFF1F4B
:0C1050000590F491E02D0994F894FFCF76
:10105C00C800000001FFFFFFFF00E10000000000DE
:10106C00001112141811131216141C181900C18037
:10107C0081000000000000000B01A9022C012101DD
:06108C00720130014E016B
:00000001FF
