:020000040000FA
:100000000C9434000C9451000C9451000C94510049
:100010000C9451000C9451000C9451000C9451001C
:100020000C9451000C9451000C9451000C9451000C
:100030000C9451000C9451000C949D000C945100B0
:100040000C9453000C9451000C9451000C945100EA
:100050000C9451000C9451000C9451000C945100DC
:100060000C9451000C94510011241FBECFEFD8E026
:10007000DEBFCDBF11E0A0E0B1E0E8E2F3E002C0F6
:1000800005900D92A230B107D9F721E0A2E0B1E0CE
:1000900001C01D92A031B207E1F70E94AF000C949D
:1000A00092010C9400001F920F920FB60F92112430
:1000B0002F933F938F939F93AF93BF9380910C01A6
:1000C00090910D01A0910E01B0910F0130910B01A3
:1000D00023E0230F2D3758F50196A11DB11D209364
:1000E0000B0180930C0190930D01A0930E01B0932E
:1000F0000F018091070190910801A0910901B09131
:100100000A010196A11DB11D80930701909308017A
:10011000A0930901B0930A01BF91AF919F918F9174
:100120003F912F910F900FBE0F901F90189526E8CA
:10013000230F0296A11DB11DD2CF1F920F920FB6B1
:100140000F9211248F939F9385B191E0892785B9F0
:100150009F918F910F900FBE0F901F9018957894DC
:1001600084B5826084BD84B5816084BD85B58260BC
:1001700085BD85B5816085BD80916E00816080936D
:100180006E001092810080918100826080938100D6
:1001900080918100816080938100809180008160E6
:1001A000809380008091B10084608093B100809141
:1001B000B00081608093B00080917A008460809369
:1001C0007A0080917A00826080937A0080917A0030
:1001D000816080937A0080917A00806880937A00B1
:1001E0001092C10084B1876084B985B1887F85B9D8
:1001F0008AB1837F8AB98BB18C608BB914BC15BC72
:1002000084B5826084BD8091000187BD80916E00BD
:10021000826080936E0085B5856085BD10928000F8
:100220001092810081E08093800088E080938100BB
:10023000809180008068809380008091020190E02E
:1002400090938900809388008091810083608093DF
:1002500081001092B0001092B1008091B1008760CF
:100260008093B1007894C0E0D0E012E32FB7F89407
:1002700080910C0190910D01A0910E01B0910F01A0
:100280002FBF4091030150910401609105017091CD
:1002900006016C017D01C41AD50AE60AF70AB70106
:1002A000A6014B3F51056105710598F04A991CC0A4
:1002B0008093030190930401A0930501B09306017C
:1002C000809100018F3F51F4109300018091000153
:1002D00087BD209759F20E940000C8CF809100018D
:1002E0008E5C80930001F2CF4B99F3CF8093030192
:1002F00090930401A0930501B0930601809102013F
:100300008F3F51F4109202018091020190E090938E
:10031000890080938800DDCF809102018E5C8093FC
:0A0320000201F2CFF894FFCF320083
:107E0000112484B714BE81FFF0D085E080938100F7
:107E100082E08093C00088E18093C10086E0809377
:107E2000C20080E18093C4008EE0C9D0259A86E02C
:107E300020E33CEF91E0309385002093840096BBD3
:107E4000B09BFECF1D9AA8958150A9F7CC24DD24C4
:107E500088248394B5E0AB2EA1E19A2EF3E0BF2EE7
:107E6000A2D0813461F49FD0082FAFD0023811F036
:107E7000013811F484E001C083E08DD089C08234E0
:107E800011F484E103C0853419F485E0A6D080C0E4
:107E9000853579F488D0E82EFF2485D0082F10E0AE
:107EA000102F00270E291F29000F111F8ED06801E7
:107EB0006FC0863521F484E090D080E0DECF843638
:107EC00009F040C070D06FD0082F6DD080E0C81688
:107ED00080E7D80618F4F601B7BEE895C0E0D1E017
:107EE00062D089930C17E1F7F0E0CF16F0E7DF06D8
:107EF00018F0F601B7BEE89568D007B600FCFDCFD4
:107F0000A601A0E0B1E02C9130E011968C91119780
:107F100090E0982F8827822B932B1296FA010C0160
:107F200087BEE89511244E5F5F4FF1E0A038BF0790
:107F300051F7F601A7BEE89507B600FCFDCF97BE46
:107F4000E89526C08437B1F42ED02DD0F82E2BD052
:107F50003CD0F601EF2C8F010F5F1F4F84911BD097
:107F6000EA94F801C1F70894C11CD11CFA94CF0C13
:107F7000D11C0EC0853739F428D08EE10CD085E9AC
:107F80000AD08FE07ACF813511F488E018D01DD067
:107F900080E101D065CF982F8091C00085FFFCCF94
:107FA0009093C60008958091C00087FFFCCF809118
:107FB000C00084FD01C0A8958091C6000895E0E648
:107FC000F0E098E1908380830895EDDF803219F02E
:107FD00088E0F5DFFFCF84E1DECF1F93182FE3DFCA
:107FE0001150E9F7F2DF1F91089580E0E8DFEE27F6
:047FF000FF270994CA
:027FFE00040479
:00000001FF
