:020000040000FA
:100000000C9461000C947E000C947E000C947E0095
:100010000C947E000C947E000C947E000C947E0068
:100020000C947E000C947E000C947E000C947E0058
:100030000C947E000C947E000C9445010C947E0080
:100040000C94FB000C947E000C947E000C947E00BB
:100050000C947E000C947E000C947E000C947E0028
:100060000C947E000C947E00000000002500280007
:100070002B0000000000240027002A0000000000E0
:1000800023002600290004040404040404040202DA
:100090000202020203030303030301020408102007
:1000A0004080010204081020010204081020000012
:1000B0000008000201000003040700000000000027
:1000C000000011241FBECFEFD8E0DEBFCDBF11E08E
:1000D000A0E0B1E0EAE8F4E002C005900D92A230A1
:1000E000B107D9F721E0A2E0B1E001C01D92A03133
:1000F000B207E1F70E9457010C9443020C940000F0
:1001000090E0FC01E255FF4F2491FC01E656FF4FC1
:100110003491FC01EA57FF4FE491EE23C1F1222311
:1001200039F02330E9F090F4213001F1223011F15F
:10013000F0E0EE0FFF1FE458FF4FA591B491EC9152
:10014000E32381E090E029F580E008952730A9F0CD
:100150002830C9F0243061F7809180008F7D03C082
:10016000809180008F7780938000E2CF84B58F7775
:1001700084BDDECF84B58F7DFBCF8091B0008F77BB
:100180008093B000D5CF8091B0008F7DF9CF80E013
:1001900090E00895CF93DF9390E0FC01E656FF4F87
:1001A00024918A579F4FFC0184918823D1F090E0DD
:1001B000880F991FFC01EE58FF4FA591B491FC01E7
:1001C000E859FF4FC591D491623071F49FB7F8940C
:1001D0003C91822F809583238C93E8812E2B28835A
:1001E0009FBFDF91CF9108958FB7F894EC912E2B9C
:1001F0002C938FBFF6CF1F920F920FB60F92112440
:100200002F933F938F939F93AF93BF9380910C0154
:1002100090910D01A0910E01B0910F0130910B0151
:1002200023E0230F2D3758F50196A11DB11D209312
:100230000B0180930C0190930D01A0930E01B093DC
:100240000F018091070190910801A0910901B091DF
:100250000A010196A11DB11D809307019093080129
:10026000A0930901B0930A01BF91AF919F918F9123
:100270003F912F910F900FBE0F901F90189526E879
:10028000230F0296A11DB11DD2CF1F920F920FB660
:100290000F9211248F939F9385B191E0892785B99F
:1002A0009F918F910F900FBE0F901F90189578948B
:1002B00084B5826084BD84B5816084BD85B582606B
:1002C00085BD85B5816085BD80916E00816080931C
:1002D0006E00109281008091810082608093810085
:1002E0008091810081608093810080918000816095
:1002F000809380008091B10084608093B1008091F0
:10030000B00081608093B00080917A008460809317
:100310007A0080917A00826080937A0080917A00DE
:10032000816080937A0080917A00806880937A005F
:100330001092C10061E088E00E94CA0061E089E09B
:100340000E94CA0061E08AE00E94CA0062E082E086
:100350000E94CA0062E083E00E94CA0014BC15BC7F
:1003600084B5826084BD8091000187BD80916E005C
:10037000826080936E0085B5856085BD81E0809345
:10038000800088E080938100809180008068809365
:1003900080008091020190E0909389008093880012
:1003A000809181008360809381001092B000109250
:1003B000B1008091B10087608093B1007894C0E073
:1003C000D0E012E38FB7F894C0900C01D0900D01EB
:1003D000E0900E01F0900F018FBF8091030190918A
:1003E0000401A0910501B0910601A7019601281B07
:1003F000390B4A0B5B0BDA01C901C397A105B105A3
:10040000B0F082E00E948000892BE1F4C0920301E9
:10041000D0920401E0920501F09206018091000162
:100420008F3F51F4109300018091000187BD209708
:1004300049F20E940000C6CF809100018E5C80933B
:100440000001F2CF83E00E948000892B81F7C092E7
:100450000301D0920401E0920501F092060180911F
:1004600002018F3F51F4109202018091020190E04D
:100470009093890080938800DACF809102018C5E8E
:0C04800080930201F2CFF894FFCF6400DB
:107E0000112484B714BE81FFF0D085E080938100F7
:107E100082E08093C00088E18093C10086E0809377
:107E2000C20080E18093C4008EE0C9D0259A86E02C
:107E300020E33CEF91E0309385002093840096BBD3
:107E4000B09BFECF1D9AA8958150A9F7CC24DD24C4
:107E500088248394B5E0AB2EA1E19A2EF3E0BF2EE7
:107E6000A2D0813461F49FD0082FAFD0023811F036
:107E7000013811F484E001C083E08DD089C08234E0
:107E800011F484E103C0853419F485E0A6D080C0E4
:107E9000853579F488D0E82EFF2485D0082F10E0AE
:107EA000102F00270E291F29000F111F8ED06801E7
:107EB0006FC0863521F484E090D080E0DECF843638
:107EC00009F040C070D06FD0082F6DD080E0C81688
:107ED00080E7D80618F4F601B7BEE895C0E0D1E017
:107EE00062D089930C17E1F7F0E0CF16F0E7DF06D8
:107EF00018F0F601B7BEE89568D007B600FCFDCFD4
:107F0000A601A0E0B1E02C9130E011968C91119780
:107F100090E0982F8827822B932B1296FA010C0160
:107F200087BEE89511244E5F5F4FF1E0A038BF0790
:107F300051F7F601A7BEE89507B600FCFDCF97BE46
:107F4000E89526C08437B1F42ED02DD0F82E2BD052
:107F50003CD0F601EF2C8F010F5F1F4F84911BD097
:107F6000EA94F801C1F70894C11CD11CFA94CF0C13
:107F7000D11C0EC0853739F428D08EE10CD085E9AC
:107F80000AD08FE07ACF813511F488E018D01DD067
:107F900080E101D065CF982F8091C00085FFFCCF94
:107FA0009093C60008958091C00087FFFCCF809118
:107FB000C00084FD01C0A8958091C6000895E0E648
:107FC000F0E098E1908380830895EDDF803219F02E
:107FD00088E0F5DFFFCF84E1DECF1F93182FE3DFCA
:107FE0001150E9F7F2DF1F91089580E0E8DFEE27F6
:047FF000FF270994CA
:027FFE00040479
:00000001FF
